:020000040800F2
:1000000000200020313200083D3100084531000851
:1000100000000000000000000000000000000000E0
:100020000000000000000000000000004D3100084A
:100030000000000000000000573100086131000896
:1000400081320008813200088132000881320008C4
:10005000813200086F3100087F31000881320008CA
:100060000000000091310008813200088132000850
:100070008132000881320008813200088132000894
:100080008132000881320008813200088132000884
:10009000813200088132000800000000813200082F
:1000A000A93100088132000881320008813200083D
:1000B0008132000881320008813200088132000854
:1000C00010B5064C2378002B07D1054B002B02D02E
:1000D000044800E000BF0123237010BD2000002071
:1000E0000000000084790008044B10B5002B03D0F9
:1000F0000349044800E000BF10BDC04600000000F6
:100100002400002084790008002243088B4274D325
:1001100003098B425FD3030A8B4244D3030B8B4208
:1001200028D3030C8B420DD3FF22090212BA030C11
:100130008B4202D31212090265D0030B8B4219D3F2
:1001400000E0090AC30B8B4201D3CB03C01A524112
:10015000830B8B4201D38B03C01A5241430B8B425A
:1001600001D34B03C01A5241030B8B4201D30B0343
:10017000C01A5241C30A8B4201D3CB02C01A52416A
:10018000830A8B4201D38B02C01A5241430A8B422D
:1001900001D34B02C01A5241030A8B4201D30B0216
:1001A000C01A5241CDD2C3098B4201D3CB01C01A30
:1001B000524183098B4201D38B01C01A524143093A
:1001C0008B4201D34B01C01A524103098B4201D328
:1001D0000B01C01A5241C3088B4201D3CB00C01A95
:1001E000524183088B4201D38B00C01A524143080D
:1001F0008B4201D34B00C01A5241411A00D2014632
:10020000524110467047FFE701B5002000F006F8A4
:1002100002BDC0460029F7D076E770477047C04658
:10022000B0B586B000AFF86008007A6019000B2303
:10023000FB18021C1A700823FB180A1C1A80FB68A2
:10024000002B02D101235B420FE0FB685C68FB6876
:10025000D8680823FB181D887A680B23FB181978C7
:100260002B00A04703007B617B691800BD4606B0E8
:10027000B0BDB0B586B000AFF86008007A60190074
:100280000B23FB18021C1A700823FB180A1C1A8087
:10029000FB68002B02D101235B420FE0FB681C6866
:1002A000FB68D8680823FB181D887A680B23FB18A5
:1002B00019782B00A04703007B617B691800BD46BD
:1002C00006B0B0BD90B585B000AF78600A00FB1CE9
:1002D0001A7008243A19786801231021FFF7A0FF4B
:1002E0000300FB60FB68002B17D1FB1C1B7803226B
:1002F0001340DAB23B1903210A4090001A780C210E
:100300008A43111C021C0A431A703A1978680123A7
:100310001021FFF7AEFF0300FB60FB681800BD462D
:1003200005B090BD90B587B000AF78600A00FB1CA7
:100330001A701723FB18FA1C12781A700C243A1939
:100340007B681100180001F02FF903003B613B6945
:10035000002B00D005E121007B181B78DB07DB0FA9
:10036000DAB27B181B789B07DB0FDBB21343DAB2E0
:100370007B181B785B07DB0FDBB21343DAB27B1809
:100380001B781B07DB0FDBB21343DAB27B181B7839
:10039000DB06DB0FDBB21343DAB27B181B789B065C
:1003A000DB0FDBB21343DAB27B181B785B06DB0F83
:1003B000DBB21343DAB27B181B781B06DB0FDBB210
:1003C0001343DAB27B185B78DB07DB0FDBB2134336
:1003D000DAB27B185B789B07DB0FDBB21343DAB230
:1003E0007B185B785B07DB0FDBB21343DAB27B1859
:1003F0005B781B07DB0FDBB21343DAB27B185B7849
:10040000DB06DB0FDBB21343DAB27B185B789B06AB
:10041000DB0FDBB21343DAB27B185B785B06DB0FD2
:10042000DBB21343DAB27B185B781B06DB0FDBB25F
:100430001343DBB2012B00D093E00B243A197B6805
:100440001100180001F0E2F803003B613B69002B4A
:1004500000D086E03B191B78032B52D000DD7AE0F8
:10046000022B2DD000DD76E0002B02D0012B0FD027
:1004700071E0FB1C1B78002B04D11723FB18012211
:100480001A706EE01723FB18FA1C12781A7068E0D5
:10049000FB1C1B78002B04D11723FB1802221A70B7
:1004A0005FE0FB1C1B78012B04D11723FB180222F1
:1004B0001A7056E01723FB18FA1C12781A7050E0D5
:1004C000FB1C1B78002B04D11723FB1803221A7086
:1004D00047E0FB1C1B78012B04D11723FB180322D8
:1004E0001A703EE0FB1C1B78022B04D11723FB186B
:1004F00003221A7035E01723FB18FA1C12781A70C1
:100500002FE0FB1C1B78002B04D11723FB180422BF
:100510001A7026E0FB1C1B78012B04D11723FB1853
:1005200004221A701DE0FB1C1B78022B04D1172338
:10053000FB1804221A7014E0FB1C1B78032B04D157
:100540001723FB1804221A700BE01723FB18FA1C60
:1005500012781A7005E01723FB18FA1C12781A702B
:10056000C0463B69002B08D10823FA18786801239C
:100570001021FFF755FE03003B613B69002B17D1AB
:100580001723FB181B780F221340DAB208243B19FB
:1005900010011A780F210A40111C021C0A431A701C
:1005A0003A19786801231021FFF763FE03003B61CD
:1005B0003B691800BD4607B090BD90B587B000AF4D
:1005C00078600A00FB1C1A701723FB18FA1C1278BB
:1005D0001A700C243A197B681100180000F0E4FF2F
:1005E00003003B613B69002B00D005E121007B1833
:1005F0001B78DB07DB0FDAB27B181B789B07DB0F5E
:10060000DBB21343DAB27B181B785B07DB0FDBB27C
:100610001343DAB27B181B781B07DB0FDBB21343E3
:10062000DAB27B181B78DB06DB0FDBB21343DAB2DE
:100630007B181B789B06DB0FDBB21343DAB27B1807
:100640001B785B06DB0FDBB21343DAB27B181B7837
:100650001B06DB0FDBB21343DAB27B185B78DB07D8
:10066000DB0FDBB21343DAB27B185B789B07DB0F3F
:10067000DBB21343DAB27B185B785B07DB0FDBB2CC
:100680001343DAB27B185B781B07DB0FDBB2134333
:10069000DAB27B185B78DB06DB0FDBB21343DAB22E
:1006A0007B185B789B06DB0FDBB21343DAB27B1857
:1006B0005B785B06DB0FDBB21343DAB27B185B7847
:1006C0001B06DB0FDBB21343DBB2012B00D093E040
:1006D0000B243A197B681100180000F097FF030003
:1006E0003B613B69002B00D086E03B191B78032B54
:1006F00052D000DD7AE0022B2DD000DD76E0002B19
:1007000002D0012B0FD071E0FB1C1B78002B04D111
:100710001723FB1801221A706EE01723FB18FA1C2E
:1007200012781A7068E0FB1C1B78002B04D1172389
:10073000FB1802221A705FE0FB1C1B78012B04D10E
:100740001723FB1802221A7056E01723FB18FA1C15
:1007500012781A7050E0FB1C1B78002B04D1172371
:10076000FB1803221A7047E0FB1C1B78012B04D1F5
:100770001723FB1803221A703EE0FB1C1B78022B88
:1007800004D11723FB1803221A7035E01723FB1836
:10079000FA1C12781A702FE0FB1C1B78002B04D176
:1007A0001723FB1804221A7026E0FB1C1B78012B70
:1007B00004D11723FB1804221A701DE0FB1C1B78C0
:1007C000022B04D11723FB1804221A7014E0FB1C1F
:1007D0001B78032B04D11723FB1804221A700BE09B
:1007E0001723FB18FA1C12781A7005E01723FB1860
:1007F000FA1C12781A70C0463B69002B08D10823F6
:10080000FA18786801231121FFF70AFD03003B6104
:100810003B69002B17D11723FB181B780F221340BD
:10082000DAB208243B1910011A780F210A40111C72
:10083000021C0A431A703A19786801231121FFF744
:1008400018FD03003B613B691800BD4607B090BD31
:1008500090B585B000AF78600A00FB1C1A700824C0
:100860003A19786801231221FFF7DAFC0300FB60D4
:10087000FB68002B17D1FB1C1B7801221340DAB256
:100880003B1901210A4090011A7840218A43111C2A
:10089000021C0A431A703A19786801231221FFF7E3
:1008A000E8FC0300FB60FB681800BD4605B090BD86
:1008B00090B585B000AF78600A00FB1C1A70082460
:1008C0003A19786801231621FFF7AAFC0300FB60A0
:1008D000FB68002B15D1FB1C1B7801221340DAB2F8
:1008E0003B19D0011A787F210A40111C021C0A43CF
:1008F0001A703A19786801231621FFF7BAFC030031
:10090000FB60FB681800BD4605B090BD80B584B0A3
:1009100000AF78607B680221180000F02FF8030018
:10092000FB60FB68002B08D10823FA1878680123C4
:100930006421FFF775FC0300FB60FB68002B0ED100
:1009400008203B181A78802149420A431A703A1845
:10095000786801236421FFF78CFC0300FB60FB68CF
:10096000002B06D17B680021180000F007F8030077
:10097000FB60FB681800BD4604B080BD90B585B033
:1009800000AF78600A00FB1C1A7008243A197868D6
:1009900001230121FFF744FC0300FB60FB68002BEF
:1009A00015D1FB1C1B7803221340DAB23B199001CE
:1009B0001A783F210A40111C021C0A431A703A1986
:1009C000786801230121FFF754FC0300FB60FB68FA
:1009D0001800BD4605B090BD90B589B000AFF86075
:1009E0007A600A23FB180A1C1A80FB68022118008F
:1009F000FFF7C4FF0300FB61FB69002B08D118233C
:100A0000FA18F86801231721FFF70AFC0300FB61BD
:100A1000FB69002B10D118203B181A7860218A43FB
:100A2000111C40220A431A703A18F8680123172152
:100A3000FFF71FFC0300FB61FB69002B08D11423A7
:100A4000FA18F86801230221FFF7EAFB0300FB61B3
:100A5000FB69002B22D10A23FB181B881B0A9BB2BF
:100A60001A1C0F231340DAB214243B1910011A7810
:100A70000F210A40111C021C0A431A703B191A78F4
:100A80000F218A43111C01220A431A703A19F8688F
:100A900001230221FFF7EDFB0300FB61FB69002B43
:100AA0000ED10A23FB181B88DAB210217B181A70AA
:100AB0007A18F86801230821FFF7DBFB0300FB61CC
:100AC000FB69002B07D17A68F86801230921FFF739
:100AD000D0FB0300FB61FB69002B08D11823FA1837
:100AE000F86801231721FFF79BFB0300FB61FB69FB
:100AF000002B0DD118203B181A7860218A431A70F8
:100B00003A18F86801231721FFF7B3FB0300FB61D4
:100B1000FB69002B06D1FB6800211800FFF72EFFB0
:100B20000300FB61FB691800BD4609B090BD90B59C
:100B300089B000AFF8607A600A23FB180A1C1A809B
:100B4000FB6802211800FFF719FF0300FB61FB6936
:100B5000002B08D11823FA18F86801231721FFF792
:100B60005FFB0300FB61FB69002B10D118203B18D1
:100B70001A7860218A43111C20220A431A703A18FD
:100B8000F86801231721FFF774FB0300FB61FB6981
:100B9000002B08D11423FA18F86801230221FFF76B
:100BA0003FFB0300FB61FB69002B22D10A23FB18EA
:100BB0001B881B0A9BB21A1C0F231340DAB21424A1
:100BC0003B1910011A780F210A40111C021C0A431C
:100BD0001A703B191A780F218A43111C01220A430B
:100BE0001A703A19F86801230221FFF742FB03004B
:100BF000FB61FB69002B0ED10A23FB181B88DAB2BC
:100C000010217B181A707A18F86801230821FFF761
:100C100030FB0300FB61FB69002B07D17A68F868A1
:100C200002230921FFF7FCFA0300FB61FB69002B9B
:100C300008D11823FA18F86801231721FFF7F0FAF2
:100C40000300FB61FB69002B0DD118203B181A78BB
:100C500060218A431A703A18F86801231721FFF7B8
:100C600008FB0300FB61FB69002B06D1FB68002138
:100C70001800FFF783FE0300FB61FB691800BD4607
:100C800009B090BD80B584B000AF786039603A6833
:100C9000786801230F21FFF7C3FA0300FB60FB68AC
:100CA0001800BD4604B080BD90B585B000AF786037
:100CB0000A00FB1C1A7008243A19786801231221D3
:100CC000FFF7AEFA0300FB60FB68002B17D1FB1C9B
:100CD0001B7801221340DAB23B1901210A401000AF
:100CE0001A7801218A43111C021C0A431A703A190E
:100CF000786801231221FFF7BCFA0300FB60FB6850
:100D00001800BD4605B090BD90B585B000AF7860C5
:100D1000396008243A19786801231221FFF780FA14
:100D20000300FB603B191B78DB07DB0FDBB21A000B
:100D30003B681A70FB681800BD4605B090BD90B5C1
:100D400087B000AF78600A00FB1C1A7010243A19B3
:100D5000786801231821FFF763FA03007B617B6940
:100D6000002B1AD1FB1C1B78DB09DBB21A1C0123F8
:100D70001340DAB23B1901210A4090181A78022177
:100D80008A43111C021C0A431A703A19786801231D
:100D90001821FFF76EFA03007B617B69002B08D1F5
:100DA0000C23FA18786801236221FFF739FA03004F
:100DB0007B617B69002B18D1FB1C1B78032213403D
:100DC000DAB20C243B1903210A40D0001A7818210A
:100DD0008A43111C021C0A431A703A1978680123CD
:100DE0006221FFF746FA03007B617B691800BD466C
:100DF00007B090BD80B584B000AF786039607B6883
:100E000002211800FFF7BAFD0300FB60FB68002B0E
:100E100008D13B689A1C786801230E21FFF729FA54
:100E20000300FB60FB68002B08D13B68DA1C786884
:100E300001230F21FFF71DFA0300FB60FB68002B65
:100E400008D13B681A1D786801231021FFF711FAB9
:100E50000300FB60FB68002B06D17B6800211800B3
:100E6000FFF78CFD0300FB60FB68002B00D09EE0C9
:100E70003B689B781B07DB0FDAB23B689B78DB068D
:100E8000DB0FDBB21343DAB23B689B789B06DB0FC8
:100E9000DBB21343DAB23B689B781B06DB0FDBB295
:100EA0001343DAB23B68DB78DB07DB0FDBB21343BB
:100EB000DAB23B68DB789B07DB0FDBB21343DAB2B5
:100EC0003B68DB785B07DB0FDBB21343DAB23B68CE
:100ED000DB781B07DB0FDBB21343DAB23B68DB784E
:100EE000DB06DB0FDBB21343DAB23B68DB789B0631
:100EF000DB0FDBB21343DAB23B68DB785B06DB0F58
:100F0000DBB21343DAB23B68DB781B06DB0FDBB2E4
:100F10001343DAB23B681B79DB07DB0FDBB2134309
:100F2000DAB23B681B799B07DB0FDBB21343DAB203
:100F30003B681B795B07DB0FDBB21343DAB23B681C
:100F40001B791B07DB0FDBB21343DAB23B681B795B
:100F5000DB06DB0FDBB21343DAB23B681B799B067F
:100F6000DB0FDBB21343DAB23B681B795B06DB0FA6
:100F7000DBB21343DAB23B681B791B06DB0FDBB233
:100F80001343DBB2002B05D03B685A7802210A4399
:100F90005A7004E03B685A7802218A435A703A68D2
:100FA000786801230E21FFF764F90300FB60FB68FA
:100FB000002B08D13B685A1C786801235F21FFF79A
:100FC00058F90300FB60FB68002B08D10823FA18CE
:100FD000786801235821FFF723F90300FB60FB68C1
:100FE000002B71D13B681B78DB07DB0FDAB23B6863
:100FF0001B789B07DB0FDBB21343DAB23B681B782D
:101000005B07DB0FDBB21343DAB23B681B781B07CD
:10101000DB0FDBB21343DAB23B681B78DB06DB0F76
:10102000DBB21343DAB23B681B789B06DB0FDBB203
:101030001343DAB23B681B785B06DB0FDBB213436A
:10104000DAB23B685B785B07DB0FDBB21343DAB2E3
:101050003B685B781B07DB0FDBB21343DAB23B68FC
:101060005B78DB06DB0FDBB21343DAB23B685B78FD
:101070009B06DB0FDBB21343DAB23B685B785B069F
:10108000DB0FDBB21343DAB23B685B781B06DB0F86
:10109000DBB21343DBB2002B07D00823FB181A780E
:1010A000802149420A431A7005E00823FB181A7888
:1010B0007F210A401A700823FA1878680123582102
:1010C000FFF7D7F80300FB60FB681800BD4604B0CB
:1010D00080BD80B584B000AF786039607B68022144
:1010E0001800FFF74BFC0300FB60FB68002B08D1E6
:1010F0003B689A1C786801230E21FFF791F80300E2
:10110000FB60FB68002B08D13B68DA1C7868012380
:101110000F21FFF785F80300FB60FB68002B08D167
:101120003B681A1D786801231021FFF779F8030046
:10113000FB60FB68002B06D17B6800211800FFF7DD
:101140001DFC0300FB60FB68002B07D13A68786840
:1011500001230E21FFF764F80300FB60FB68002BFE
:1011600008D13B685A1C786801235F21FFF758F8C3
:101170000300FB60FB681800BD4604B080BD90B55D
:1011800085B000AF78600A00FB1C1A7008243A1979
:10119000786801231221FFF743F80300FB60FB6826
:1011A000002B17D1FB1C1B7801221340DAB23B192C
:1011B00001210A4010011A7810218A43111C021CD7
:1011C0000A431A703A19786801231221FFF751F87F
:1011D0000300FB60FB681800BD4605B090BD90B5EC
:1011E00085B000AF78600A00FB1C1A7008243A1919
:1011F000786801231221FFF713F80300FB60FB68F6
:10120000002B17D1FB1C1B7801221340DAB23B19CB
:1012100001210A4050011A7820218A43111C021C26
:101220000A431A703A19786801231221FFF721F84E
:101230000300FB60FB681800BD4605B090BD90B58B
:1012400087B000AF78600A00FB1C1A7010243A19AE
:10125000786801235621FEF7E3FF03007B617B6979
:10126000002B27D1FB1C1B7801221340DAB23B195B
:1012700001210A4010001A7801218A43111C021C26
:101280000A431A70FB1C1B7801221340DAB23B1987
:1012900001210A4090011A7840218A43111C021C46
:1012A0000A431A703A19786801235621FEF7E1FFC4
:1012B00003007B617B69002B06D17B68022118004B
:1012C000FFF75CFB03007B617B69002B08D10C23DB
:1012D000FA18786801231721FEF7A2FF03007B614B
:1012E0007B69002B18D1FB1C1B785B081A1C01239F
:1012F0001340DAB20C243B19D0011A787F210A403E
:10130000111C021C0A431A703A197868012317212C
:10131000FEF7AFFF03007B617B69002B06D17B6882
:1013200000211800FFF72AFB03007B617B6918008E
:10133000BD4607B090BD90B585B000AF78600A009B
:10134000FB1C1A707B6802211800FFF717FB0300D3
:10135000FB60FB68002B08D10823FA18786801238A
:101360000421FEF75DFF0300FB60FB68002B18D132
:10137000FB1C1B7801221340DAB208243B1901211F
:101380000A40D0001A7808218A43111C021C0A4323
:101390001A703A19786801230421FEF76AFF0300E6
:1013A000FB60FB68002B06D17B6800211800FFF76B
:1013B000E5FA0300FB60FB681800BD4605B090BD70
:1013C00090B587B000AF78600A00FB1C1A707B688C
:1013D00002211800FFF7D2FA03007B617B69002B22
:1013E00008D11023FA18786801230321FEF718FFAB
:1013F00003007B617B69002B1AD1FB1C1B78012247
:1014000013405A425341DAB210243B1901210A40D9
:1014100090181A7802218A43111C021C0A431A7080
:101420003A19786801230321FEF723FF03007B614B
:101430007B69002B08D10C23FA1878680123052159
:10144000FEF7EEFE03007B617B69002B18D1FB1CCD
:101450001B7801221340DAB20C243B1901210A4007
:1014600010011A7810218A43111C021C0A431A70B9
:101470003A19786801230521FEF7FBFE03007B6122
:101480007B69002B06D17B6800211800FFF776FAF4
:1014900003007B617B69002B2CD108243A1984233B
:1014A000FF3319007B681800FFF741FB03007B61E5
:1014B000FB1C1B7801221340DAB23B1901210A40C0
:1014C00090001A7804218A43111C021C0A431A70E6
:1014D000FB1C1B785B081A1C01231340DAB23B1972
:1014E00001210A4010001A7801218A43111C021CB4
:1014F0000A431A707B69002B0AD10823FA18842347
:10150000FF3319007B681800FFF766FA03007B6160
:101510007B691800BD4607B090BD80B584B000AFB0
:10152000786039603A68C22359007B681800FFF779
:1015300053FA0300FB60FB681800BD4604B080BD91
:1015400090B585B000AF78600A00FB1C1A700824C3
:101550003A198423FF3319007B681800FFF7E7FA74
:101560000300FB60FB68002B19D1FB1C1B780122D8
:101570001340DAB23B1901210A40D0001A78082141
:101580008A43111C021C0A431A703A198423FF3340
:1015900019007B681800FFF71FFA0300FB60FB6867
:1015A0001800BD4605B090BD80B584B000AF78602E
:1015B00039607B6802211800FFF7E0F90300FB6047
:1015C000FB68002B07D13A68786801234621FEF7B3
:1015D00027FE0300FB60FB68002B08D13B685A1C08
:1015E000786801234721FEF71BFE0300FB60FB68C0
:1015F000002B06D17B6800211800FFF7BFF903001C
:10160000FB60FB681800BD4604B080BD80B584B0A7
:1016100000AF786039607B6802211800FFF7AEF9EF
:101620000300FB60FB68002B08D10823FA187868D8
:1016300001235F21FEF7F4FD0300FB60FB68002B34
:1016400006D17B6800211800FFF798F90300FB60C2
:101650000823FB181B78DB069B0FDBB2032B14D08F
:1016600017DC022B0DD014DC002B02D0012B04D090
:101670000FE03B6800221A700FE03B6801221A70ED
:101680000BE03B6802221A7007E03B6803221A70E5
:1016900003E03B6800221A70C046FB681800BD4694
:1016A00004B080BD80B500AF01F0EBFD00F0CAFCD6
:1016B00000F080F800F030F900F010F900F0CEF8FA
:1016C0002E4B00221A702E4B00221A702D4B002236
:1016D0001A702D4B00221A702C4B00221A702C4BC2
:1016E00000221A702B4B00221A702B4B00221A700A
:1016F0002A4B00221A702A4B00221A70294B002212
:101700001A70294B00221A7000F008FD00F0D2FD7B
:10171000264B180000F01AFA00F064FB174B1B78F8
:10172000DBB2002B1BD1224A204B1100180000F025
:1017300069FA031E05D01E4B1B68180000F090FAD2
:10174000EAE7184B01221A7001F038FE012005F07B
:1017500099F801F041FE134B00221A70DCE7124B9E
:1017600001221A7001F02AFE0121002004F09AFFE4
:1017700001F032FE0C4B00221A70CDE7630100200D
:10178000600100206101002062010020640100204E
:10179000650100206601002067010020680100202B
:1017A0006901002088010020890100201401002027
:1017B0001000002090B597B000AF10243B1918001E
:1017C00048231A00002106F0B1F83B00180010234E
:1017D0001A00002106F0AAF88023DB00180004F0AC
:1017E0009BFF3B1903221A603B19802252025A6068
:1017F0003B1980225200DA603B1940221A613B19E2
:1018000000229A623B19180005F070F8031E01D0FF
:1018100000F04AFF3B0007221A603B0002225A6098
:101820003B0000229A603B000022DA603B0001216D
:10183000180005F041FC031E01D000F035FFA02385
:10184000DA03C0239B020448190005F021FDC046BD
:10185000BD4617B090BDC0460400021080B500AF71
:101860001B4B1C4A1A601A4B1B4A5A60184B002229
:101870009A60174B0122DA60154B00221A61144B53
:1018800000225A61124B00229A61114B0022DA6148
:101890000F4B00221A620E4B180002F0F9FB031ED8
:1018A00001D000F001FF0A4B0021180004F062FE95
:1018B000031E01D000F0F8FE054B0021180004F0D3
:1018C000A5FE031E01D000F0EFFEC046BD4680BD60
:1018D0003C000020008800405B3D300080B582B0B5
:1018E00000AF0C4B9A6C0B4B01210A439A64094BD5
:1018F0009B6C012213407B607B6800220021092041
:1019000001F024FE092001F036FEC046BD4602B0BB
:1019100080BDC0460010024090B58BB000AF1424CB
:101920003B19180014231A00002105F0FFFF814B1A
:10193000DA6C804B04210A43DA647E4BDB6C0422B0
:1019400013403B613B697B4BDA6C7A4B20210A43A5
:10195000DA64784BDB6C20221340FB60FB68754B2C
:10196000DA6C744B01210A43DA64724BDB6C01229E
:101970001340BB60BB686F4BDA6C6E4B02210A43AD
:10198000DA646C4BDB6C022213407B607B686A4933
:101990006A4B0022180002F034FB9E231902A02398
:1019A000DB050022180002F02CFB3B19E02212029A
:1019B0001A603B1903225A603B1900229A603B19B6
:1019C0005F4A1900100002F0BBF83B190C221A60A4
:1019D0003B1903225A603B1900229A603B19594A6D
:1019E0001900100002F0ACF83B1901221A603B19F3
:1019F000882252035A603B1900229A603A19A023A8
:101A0000DB051100180002F09BF83B1902221A6056
:101A10003B1900225A603B1902229A603A19A0230E
:101A2000DB051100180002F08BF83B1904221A6044
:101A30003B19842292035A603B1900229A603A199A
:101A4000A023DB051100180002F07AF83B193822B8
:101A50001A603B1903225A603B1900229A603A1916
:101A6000A023DB051100180002F06AF83B19364A82
:101A70001A603B1903225A603B1900229A603B19F5
:101A80002E4A1900100002F05BF83B192A4A1A602E
:101A90003B1901225A603B1900229A603B1900222F
:101AA000DA603B19254A1900100002F049F82100BC
:101AB0007B18802252001A600C003B1902225A60E7
:101AC0003B1900229A603B190022DA603B19002280
:101AD0001A613A19A023DB051100180002F030F852
:101AE00021007B189E2212021A607B1801225A6084
:101AF0007B1800229A607B180022DA607A18A023F3
:101B0000DB051100180002F01BF80022002105205F
:101B100001F01CFD052001F02EFD00220021062011
:101B200001F014FD062001F026FDC046BD460BB0B5
:101B300090BDC0460010024012FC0000000400509E
:101B40000008005000140050ED03000080B582B082
:101B500000AF78607B6800221A647B6801225242E1
:101B60005A647B6800229A64C046BD4602B080BDBC
:101B700080B582B000AF78607B689B6C5A4253415D
:101B8000DBB21800BD4602B080BD80B582B000AFA8
:101B900078607B689B6C103B5A425341DBB2180063
:101BA000BD4602B080BD000080B582B000AF786055
:101BB00039607B681800FFF7E8FF031E01D000239F
:101BC00019E07B685B6C01330D4A134004D5013B7F
:101BD00010225242134301331A007B685A647B6817
:101BE0005A6C7B6892003968D1507B689B6C5A1C98
:101BF0007B689A6401231800BD4602B080BDC046D0
:101C00000F00008080B582B000AF786039607B68DB
:101C10001800FFF7ADFF031E01D000231AE07B6818
:101C20001A6C7B689200D2583B681A607B681B6C08
:101C300001330A4A134004D5013B10225242134398
:101C400001331A007B681A647B689B6C5A1E7B68A0
:101C50009A6401231800BD4602B080BD0F000080C9
:101C600090B589B004AF78600C23FB1800221A707D
:101C70007B68022B00D170E07B68022B00DD90E0D6
:101C80007B68002B03D07B68012B35D089E0494B62
:101C90001B78DBB2002B06D0464B1B78DBB2013B36
:101CA000DAB2444B1A700C243B191A783F210A40CF
:101CB000111C802252420A431A703F4805230293A6
:101CC000012301933B19009301230122D42102F047
:101CD00085FA031E67D1394B01221A70384B012255
:101CE0001A70354802230193364B00930123622278
:101CF000D42102F0D5FC56E0334B1B78DBB2002B2D
:101D000006D0314B1B78DBB2013BDAB22E4B1A7096
:101D10000C243B191A783F210A401A7026480523E3
:101D20000293012301933B19009301230122D42143
:101D300002F054FA031E38D1204B01221A70234BB3
:101D400001221A701C4801230193214B00930123A7
:101D50001C22D42102F0A4FC27E01E4B1B78DBB22E
:101D6000002B06D01B4B1B78DBB2013BDAB2194BC0
:101D70001A700B23FA18184B1100180000F030FDF0
:101D80000E4B01221A70154B01221A700A480823C3
:101D90000193134B009301230722D02102F080FC12
:101DA00004E0C04602E0C04600E0C046C046BD4672
:101DB00005B090BD610100203C00002063010020BF
:101DC000680100206C0100206001002066010020F5
:101DD0007001002062010020000100206401002049
:101DE00078010020B0B586B000AF8C4B1B78DBB219
:101DF000002B00D1D5E00F23FB18894A12781A7006
:101E0000874B5B787F221340DBB20E22BC18180090
:101E100000F0ACFC03002370814B9B787F221340C1
:101E2000DBB20D22BC18180000F0A0FC03002370E8
:101E30000C203B187A4AD2781A703B181B789B0901
:101E4000DAB20B243B1901210A401A703B191B78A6
:101E5000002B1CD13B181B780F22134019000400E3
:101E60003B181B785B0901221A4013009B009B184A
:101E70009B0018003B191B781B0901221A40130014
:101E80009B009B185B00C318CB187B6137E00C20CC
:101E90003B181B781B09DBB201221340DBB21A1C72
:101EA0009200D318DB18D9B23B181B780F221340CD
:101EB000DAB20A243B198A181A703B181B785B099E
:101EC000DAB209203B1801210A401A703B181B782E
:101ED000002B09D13B191B780C2B02D03B191B7826
:101EE00000E000237B610AE00A22BB181B780C2B60
:101EF00003D0BB181B780C3300E00C237B61484BEC
:101F00001A7908257B1907210A401A70444B5B791E
:101F10003F221340DBB2FC1D180000F027FC030039
:101F200023703F4B9B790F221340DBB2BC1D18007E
:101F300000F01CFC03002370394BDB797C1D18007A
:101F400000F014FC03002370364B0F22BA181278ED
:101F50001A70344B0E22BA1812785A70314B0D2277
:101F6000BA1812789A707B69DAB22E4BDA702D4B60
:101F70007A1912781A712B4BFA1D12785A71294B63
:101F8000BA1D12789A71274B7A1D1278DA713A1DB0
:101F9000254B1100180000F023FC204B00221A7082
:101FA00037E0224B1B78DBB2002B1ED0204B3B616D
:101FB0003B691B7810221340DBB2002B03D01D4B72
:101FC00002221A800DE03B691B7820221340DBB20D
:101FD000002B03D0174B01221A8002E0154B002280
:101FE0001A80124B00221A7013E0134B1B78DBB2DD
:101FF000002B0ED0114B5B781B021AB20F4B1B78D3
:102000001BB213431BB29AB20D4B1A800A4B00222B
:102010001A70C046BD4606B0B0BDC046650100207E
:1020200078010020800100200001002067010020CD
:102030007001002074010020690100206C01002063
:102040007201002080B586B000AF3B001800142359
:102050001A00002105F06AFC3B00C0221A603B0018
:1020600011225A603B0000229A603B000222DA6093
:102070003A00A023DB051100180001F061FDA02348
:10208000DB050122C021180001F0BBFF012001F097
:1020900073F900237B6116E0A023DB050122802178
:1020A000180001F0AEFF012001F066F9A023DB0566
:1020B00000228021180001F0A4FF012001F05CF94A
:1020C0007B6901337B617B69082B07DCA023DB057F
:1020D0004021180001F078FF031EDDD0A023DB05AE
:1020E00000224021180001F08CFFA023DB05012213
:1020F0008021180001F085FFA023DB05012240218B
:10210000180001F07EFFA023DB05C021180001F0BC
:1021100083FEC046BD4606B080BD000080B582B0DB
:1021200000AFFB1C01221A70BB1C00221A703C4B32
:102130003C4A1A603A4B3C4A5A60394B3B4A9A60D7
:10214000374B3B4ADA60642001F016F9344B012129
:102150001800FEF7A9FD031E01D000F0A5FA3220F9
:1021600001F00AF9FA1C2E4B11001800FEF7CCFD05
:10217000031EEBD1FB1C1B78002BE7D100237B60F7
:1021800011E0BA1C264B11001800FEF77BFD031E60
:1021900003D1BB1C1B786B2B09D0142001F0ECF889
:1021A0007B6801337B607B68092BEADD00E0C04679
:1021B000BB1C1B786B2B01D000F076FA184B8021EA
:1021C0001800FEF7BCFD031E01D000F06DFA144BA1
:1021D00080211800FEF7B3FD114B00211800FEF717
:1021E000ECF90F4B01211800FEF762FB0C4B0121AB
:1021F0001800FEF72DFB00F01DF8094B0021180018
:10220000FEF7BDFF064B00211800FEF7E8FF044B68
:1022100000211800FFF713F8C046BD4602B080BD8C
:10222000EC000020F9250008512600087933000849
:102230000000002080B582B000AF1D4B02211800C5
:10224000FEF740F81A4B02211800FEF76BF8184B06
:1022500001211800FFF76FF8154B03211800FFF755
:10226000AFF8134B00211800FFF76AF9104B180064
:10227000FEF74CFBFB1D08221A70FA1D0C4B1100D7
:102280001800FFF74AF93A00094B11001800FEF751
:1022900020FF3B009A7808210A439A703A00044BC9
:1022A00011001800FEF7A6FDC046BD4602B080BD75
:1022B000EC000020F0B589B004AF0F243B190022D8
:1022C0001A700E257B1900221A700D23FB180E229E
:1022D0001A700C26BB1903221A700B22BB181B2282
:1022E0001A700A217B1808221A7009203B1819223B
:1022F0001A7008217B1800221A70674B674A1A600F
:10230000654B674A5A60644B664A9A60624B664AFC
:10231000DA60142001F030F85F4B180000F079FA11
:10232000052001F029F83B1919782E00BB191A78FD
:102330000D23FB181B78584800F09BFA25003B1929
:10234000FF221A70BB19FF221A700D243B19FF22BD
:102350001A70FB1DFF221A70052001F00DF83C19C0
:10236000BA1979194C48FB1D0093230000F018FBA3
:10237000052001F001F80C26BB1919780B22BB18B7
:102380001C780A23FB181D780823FB181B780920EA
:102390003A1812784048019200932B00220000F076
:1023A000C7FB35007B19FF221A700B26BB19FF22D1
:1023B0001A700A243B19FF221A7009203B18FF22C9
:1023C0001A7008217B18FF221A70052000F0D4FF34
:1023D0003C19BA19791930480923FB1801930823CD
:1023E000FB180093230000F029FC052000F0C4FF37
:1023F000294B00220121180000F097FC052000F075
:10240000BBFF25480323009301230022002100F095
:10241000C6FC052000F0B0FF1F4B0421180000F09F
:1024200019FD052000F0A8FF1B480323009301239A
:102430000022012100F0B3FC052000F09DFF1648AA
:1024400000230393002302930123019300230093AD
:1024500000230022002100F015FDBB1DFF221A7091
:10246000052000F089FFBA1D0B4B1100180000F089
:1024700094FD052000F080FF7B1DFF221A707A1D5D
:10248000054B1100180000F0ABF9052000F074FFB7
:10249000C046BD4605B0F0BD00010020F92500088A
:1024A00051260008793300080800002080B582B06A
:1024B00000AF0200BB1D1A80BB1D1B88042B12D16C
:1024C0000B4B1B78DBB2012B0DD80A4B02211800F5
:1024D000FFF76AFB031E06D0054B1B78DBB2013306
:1024E000DAB2034B1A70C046BD4602B080BDC0468A
:1024F000620100201401002080B582B000AF02000C
:10250000BB1D1A80BB1D1B88012B12D1164B1B78DB
:10251000DBB2012B0DD8154B00211800FFF744FB4F
:10252000031E06D0104B1B78DBB20133DAB20E4B20
:102530001A70BB1D1B88022B12D10D4B1B78DBB20E
:10254000012B0DD8094B01211800FFF72DFB031EAD
:1025500006D0074B1B78DBB20133DAB2044B1A709A
:10256000C046BD4602B080BD6101002014010020BC
:102570006001002080B582B000AF78607A68164BA9
:102580009A4222D1154B1B78DBB2002B06D0134B9D
:1025900000221A70124B01221A7016E0114B1B78A0
:1025A000DBB2002B06D00F4B00221A700E4B01221B
:1025B0001A700AE00D4B1B78DBB2002B05D00B4BD9
:1025C00000221A700A4B01221A700A4B00221A705C
:1025D000C046BD4602B080BD3C0000206401002022
:1025E00065010020660100206701002068010020CD
:1025F0006901002063010020B0B58AB004AFF86023
:1026000008007A6019000B243B19021C1A70082577
:102610007B190A1C1A80FB687B617B6918687B69DF
:1026200099883B191B789AB2642302937B191B8803
:1026300001937B680093012301F0D0FD031E02D0BB
:1026400001235B4200E000231800BD4606B0B0BD88
:10265000B0B58AB004AFF86008007A6019000B24A6
:102660003B19021C1A7008257B190A1C1A80FB688A
:102670007B617B6918687B6999883B191B789AB2E2
:10268000642302937B191B8801937B6800930123C9
:1026900001F0D2FE031E02D001235B4200E00023C2
:1026A0001800BD4606B0B0BD80B500AF72B6C046DA
:1026B000C046FDE7B0B584B000AFF86008007A60AE
:1026C00019000B23FB18021C1A700823FB180A1CA4
:1026D0001A80FB68002B06D07B68002B03D0FB68B8
:1026E0005B68002B02D101235B420DE0FB685C6854
:1026F000FB68D8680823FB181D887A680B23FB1831
:1027000019782B00A04703001800BD4604B0B0BDE7
:10271000B0B584B000AFF86008007A6019000B23F0
:10272000FB18021C1A700823FB180A1C1A80FB688D
:10273000002B06D07B68002B03D0FB681B68002BA6
:1027400002D101235B420DE0FB681C68FB68D8687E
:102750000823FB181D887A680B23FB1819782B00B7
:10276000A04703001800BD4604B0B0BD80B582B0DC
:1027700000AF0200FB1D1A70FB1D1B781B09DBB2AA
:102780001A1C9200D318DB18DAB2FB1D1B780F213C
:102790000B40DBB2D318DBB21800BD4602B080BDDF
:1027A00090B583B000AF0200FB1D1A70FB1D1B78B3
:1027B0000A211800FDF7A8FC0300DBB21B015CB284
:1027C000FB1D1B780A211800FDF724FD0B00DBB26E
:1027D0005BB223435BB2DBB21800BD4603B090BDD1
:1027E00080B582B000AF786039607B68002B02D082
:1027F0003B68002B02D101235B4206E03A6878680F
:1028000001230021FFF756FF03001800BD4602B068
:1028100080BD80B584B000AF78607B68002B02D1AA
:1028200001235B4221E00B217B1801221A707A18E8
:10283000786801230221FFF76BFF0300FB60FB6850
:10284000002B01D0FB6810E07B689B68052098474F
:102850000B217B1800221A707A1878680123022154
:10286000FFF756FF0300FB60FB681800BD4604B08D
:1028700080BDF0B585B000AF78600C001000190085
:10288000FB1C221C1A70BB1C021C1A707B1C0A1C2D
:102890001A707B68002B02D101235B427CE0FB1C99
:1028A0001B783B2B07D8BB1C1B783B2B03D87B1C0E
:1028B0001B78172B02D902235B426DE0FB1C1B78AF
:1028C0001800FFF76DFF030019000F257B197F2209
:1028D0000A401A70BB1C1B781800FFF761FF030049
:1028E00019000E26BB197F220A401A700D243B19CD
:1028F00000221A707B1C1B780A211800FDF78AFC45
:102900000B00DBB21800FFF74BFF03001A000F2388
:102910001340D9B23B193A1912780A431A707B1C3A
:102920001B780A211800FDF7EFFB0300DBB21B0147
:10293000DBB210221340D9B23B193A1912780A437C
:102940001A707B1C1B7814211800FDF7DDFB0300B7
:10295000DBB25B01DBB220221340D9B23B193A193A
:1029600012780A431A703B1921003A1912781A702A
:1029700008203B187A1912781A703B18BA19127885
:102980005A703B187A1812789A703A1878680323AC
:102990000821FFF7BDFE03001800BD4605B0F0BDDD
:1029A000B0B588B000AFF860B9607A603B60FB6892
:1029B000002B0BD0BB68002B08D07B68002B05D008
:1029C0003B68002B02D03B6B002B02D101235B4202
:1029D000A7E014203B18554A12881A8002220021D1
:1029E00099543A18F86803230821FFF763FE03009F
:1029F000FB61FB69002B01D0FB6992E01B203B18B7
:102A000014217A1812781A701A257B197A185278BC
:102A10001A7019243B197A1892781A703B181B788F
:102A20007F221340DBB21800FFF7A0FE03001A005C
:102A3000BB681A707B191B787F221340DBB2180029
:102A4000FFF794FE03001A007B681A703B191B788D
:102A50009B09DBB201221340DAB23B6B1A703B6B6D
:102A60001B78002B21D13B191B785B09DBB20122BB
:102A70001340DBB214225343DAB23B191B781B0913
:102A8000DBB201210B40DBB2191C8900CB18DB182B
:102A9000DBB2D318DAB23B191B780F210B40DBB243
:102AA000D318DAB23B681A703AE019203B181B7849
:102AB0001B09DBB201221340DBB21A1C9200D318AF
:102AC000DB18D9B23B181B780F221340DAB2182456
:102AD0003B198A181A703B181B785B09DAB2172069
:102AE0003B1801210A401A703B181B78002B0AD1B1
:102AF0003B191B780C2B02D03B191A7800E00022FE
:102B00003B681A700CE01822BB181B780C2B04D001
:102B1000BB181B780C33DAB200E00C223B681A7049
:102B2000FB691800BD4608B0B0BDC0469C790008DE
:102B3000F0B585B000AF78600C0010001900FB1CE8
:102B4000221C1A70BB1C021C1A707B1C0A1C1A70F7
:102B50007B68002B02D101235B426BE0BB1C1B781E
:102B6000002B13D0BB1C1B781F2B0FD87B1C1B7892
:102B7000002B0BD07B1C1B780C2B07D8FB1C1B7865
:102B8000002B03D0FB1C1B78072B02D902235B42CE
:102B900050E00F23FB18FA1C127807210A401A7024
:102BA000BB1C1B781800FFF7FBFD030019000E2368
:102BB000FB183F220A401A707B1C1B781800FFF795
:102BC000EFFD03001A000F231340D9B2202308227F
:102BD0009B18DB191B78002B01D0802300E0002319
:102BE0000D257A190B4313700C26BC1924230822D7
:102BF0009B18DB191B781800FFF7D2FD0300237028
:102C000008217B180F22BA1812781A707B180E222E
:102C1000BA1812785A707B187A1912789A707B1841
:102C2000BA191278DA707A18786804230B21FFF742
:102C30006FFD03001800BD4605B0F0BDF0B589B0CA
:102C400000AFF860B9607A603B60FB68002B0BD086
:102C5000BB68002B08D07B68002B05D03B68002B9D
:102C600002D0FB6B002B02D101235B4259E01421FF
:102C70007B1800221A607A18F86804230B21FFF7EA
:102C800019FD0300FB61FB69002B01D0FB6948E0E3
:102C90001B203B1814217A1812781A701A257B19F8
:102CA0007A1852781A7019243B197A1892781A7087
:102CB0001826BB197A18D2781A703B181B7807228D
:102CC0001340DBB21800FFF751FD03001A00BB6888
:102CD0001A707B191B783F221340DBB21800FFF7F4
:102CE00045FD03001A007B681A703B191B780F2200
:102CF0001340DBB21800FFF739FD03001A003B68F0
:102D00001A703B191B78DB09DAB2BB6B1A70BB195E
:102D10001B781800FFF72AFD03001A00FB6B1A70DE
:102D2000FB691800BD4609B0F0BD80B584B000AFA6
:102D3000786008001100FB1C021C1A70BB1C0A1CE6
:102D40001A707B68002B02D101235B4223E00F2124
:102D50007B1800221A70BB1C1B7803221340DAB2C6
:102D60007B181B781343DAB27B181A70FB1C1B7894
:102D7000002B01D0042300E000230F217A181278E1
:102D80001343DAB27B181A707A1878680123042189
:102D9000FFF7BEFC03001800BD4604B080BD90B52F
:102DA00085B000AF78600C0010001900FB1C221CDD
:102DB0001A70BB1C021C1A707B1C0A1C1A707B68E0
:102DC000002B02D101235B4240E00F217B1800223F
:102DD0001A702023FB181B7803221340DAB27B18E9
:102DE0001B781343DAB27B181A70FB1C1B78002B7C
:102DF00001D0102300E000230F217A18127813432A
:102E0000DAB27B181A707B1C1B78002B01D00423CC
:102E100000E000230F217A1812781343DAB27B18EE
:102E20001A70BB1C1B78002B01D0082300E0002384
:102E30000F217A1812781343DAB27B181A707A18B5
:102E4000786801230621FFF763FC03001800BD46E4
:102E500005B090BD80B582B000AF78600A00FB1C61
:102E60001A707B68002B02D101235B4206E0FA1C3A
:102E7000786801231921FFF74BFC03001800BD46B9
:102E800002B080BD90B585B000AF78600C00100036
:102E90001900FB1C221C1A70BB1C021C1A707B1C24
:102EA0000A1C1A707B68002B02D101235B4270E080
:102EB0000F23FB1800221A70FB1C1B78002B01D07B
:102EC000402300E000230F217A1812781343DAB26E
:102ED0007B181A70BB1C1B78002B01D0202300E04C
:102EE00000230F217A1812781343DAB27B181A7074
:102EF0007B1C1B78002B01D0102300E000230F2146
:102F00007A1812781343DAB27B181A702023FB1850
:102F10001B78002B01D0082300E000230F217A1832
:102F200012781343DAB27B181A702423FB181B782B
:102F3000002B01D0042300E000230F217A1812781F
:102F40001343DAB27B181A702823FB181B78002B66
:102F500001D0022300E000230F217A1812781343D6
:102F6000DAB27B181A702C23FB181B78002B01D0C7
:102F7000012300E000230F217A1812781343DAB2FC
:102F80007B181A707A18786801230121FFF7C0FBBB
:102F900003001800BD4605B090BD80B582B000AFFB
:102FA000786039607B68002B02D101235B4206E028
:102FB0003A68786801230121FFF77CFB03001800C1
:102FC000BD4602B080BD000080B582B000AF0F4B9F
:102FD0009A6D0E4B802149050A439A650B4B9A6DF9
:102FE00080235B0513407B607B68084B1A6E074BA0
:102FF00001210A431A66054B1B6E012213403B60F8
:103000003B68C046BD4602B080BDC04600100240CD
:1030100090B599B000AF78604C23FB1818001423CA
:103020001A00002104F082FC14243B1918003823F4
:103030001A00002104F07AFC7B681B683B4A93422B
:1030400070D13B1940221A603B19802292029A618A
:103050003B19180004F086FA031E01D0FFF724FB89
:10306000334BDA6C324B01210A43DA64304BDB6CB0
:10307000012213403B613B694C217B18C0221A603E
:103080007B1812225A607B1800229A607B1800225B
:10309000DA607B1804221A617A18A023DB0511007C
:1030A000180000F04DFD224B9A6D214B8021090440
:1030B0000A439A651E4B9A6D80231B041340FB60E4
:1030C000FB681C4B1C4A1A601A4B0D225A60194BA4
:1030D00000229A60174B0022DA60164B80221A6198
:1030E000144B00225A61134B00229A61114B0022AB
:1030F000DA61104B00221A620E4B180000F058FAE9
:10310000031E01D0FFF7D0FA7B680A4ADA63094B45
:103110007A689A6200220021182000F017FA18201D
:1031200000F029FAC046BD4619B090BD00880040A5
:1031300000100240900000200800024080B500AF5F
:10314000C046FDE780B500AFC046FDE780B500AFE3
:10315000C046BD4680BD80B500AFC046BD4680BDFF
:1031600080B500AF00F0EEF8C046BD4680BD80B52A
:1031700000AF012000F062FFC046BD4680BD80B5B3
:1031800000AF042000F05AFFC046BD4680BD0000DD
:1031900080B500AF034B180000F084FBC046BD466D
:1031A00080BDC0469000002080B500AF094B1B6871
:1031B0009A69E023DB00134004D0064B180001F0AD
:1031C00089FB03E0034B180001F06AFBC046BD46D3
:1031D00080BDC0463C00002080B582B000AF124BDD
:1031E000802212059A60114A8023D3587B600F4BCE
:1031F0001B6A3B607A6880235B02134010D03B68F7
:10320000FF221340CC2B0BD03B68FF221340AA2B8C
:1032100006D0064B1A68054B8021C9020A431A6082
:10322000C046BD4602B080BD00ED00E00020024077
:103230000D488546FFF7D0FF0C480D490D4A002385
:1032400002E0D458C4500433C4188C42F9D30A4A5B
:103250000A4C002301E013600432A242FBD304F0C5
:103260006DFBFEF71FFAFEE70020002000000020A3
:1032700020000020E87900082000002090010020B4
:10328000FEE780B582B000AFFB1D00221A7003205C
:1032900000F00EF8031E03D0FB1D01221A7001E09E
:1032A000FFF792FEFB1D1B781800BD4602B080BDE3
:1032B00090B585B000AF78600F23FB1800221A701C
:1032C0001D4B1B68002B2BD01C4B1C681A4B1B681A
:1032D0001900FA239800FCF717FF030019002000DB
:1032E000FCF712FF0300180000F055F9031E12D17D
:1032F0007B68032B0AD8796801235B4200221800FF
:1033000000F024F90E4B7A681A600DE00F23FB18C9
:1033100001221A7008E00F23FB1801221A7003E043
:103320000F23FB1801221A700F23FB181B781800BB
:10333000BD4605B090BDC0461C0000201400002012
:103340001800002080B500AF044B1A68044B1B68BE
:10335000D218024B1A60C046BD4680BD8C010020C9
:103360001C00002080B500AF024B1B681800BD4652
:1033700080BDC0468C01002080B584B000AF78606D
:10338000FFF7F0FF0300BB607B68FB60FB68013365
:1033900004D0094B1B68FA68D318FB60C046FFF7DE
:1033A000E1FF0200BB68D31AFA689A42F7D8C04618
:1033B000C046BD4604B080BD1C00002080B500AFF3
:1033C000044B1A68034B02218A431A60C046BD466B
:1033D00080BDC04610E000E080B500AF044B1A6825
:1033E000034B02210A431A60C046BD4680BDC04659
:1033F00010E000E080B582B000AF0200FB1D1A7043
:10340000FB1D1B787F2B09D8FB1D1B781A001F237F
:103410001A40044B012191400A001A60C046BD4683
:1034200002B080BD00E100E090B583B000AF0200C3
:103430003960FB1D1A70FB1D1B787F2B28D82F4A83
:10344000FB1D1B785BB29B08C0339B009B58FA1D89
:103450001278110003220A40D200FF2191400A0095
:10346000D2431A4011003B689B01FF221A40FB1D0A
:103470001B78180003230340DB009A401F48FB1D04
:103480001B785BB29B080A43C0339B001A5031E0A3
:103490001B4AFB1D1B7819000F230B40083B9B08A0
:1034A00006339B00D31804331B68FA1D12781100F1
:1034B00003220A40D200FF2191400A00D2431A4061
:1034C00011003B689B01FF221A40FB1D1B7818006E
:1034D00003230340DB009A400948FB1D1B781C00B6
:1034E0000F232340083B9B080A4306339B00C31865
:1034F00004331A60C046BD4603B090BD00E100E051
:1035000000ED00E080B582B000AF78607B685A1EA5
:1035100080235B049A4201D3012310E00A4B7A68AE
:10352000013A5A6001235B4203211800FFF77CFF38
:10353000054B00229A60044B07221A6000231800F2
:10354000BD4602B080BDC04610E000E080B584B04A
:1035500000AFB9607A600F217B18021C1A70BA683C
:103560007B181B785BB211001800FFF75DFFC046A7
:10357000BD4604B080BD80B582B000AF0200FB1D27
:103580001A70FB1D1B785BB21800FFF733FFC046B3
:10359000BD4602B080BD80B582B000AF78607B6868
:1035A0001800FFF7AFFF03001800BD4602B080BD52
:1035B00080B582B000AF78607B68002B01D1012319
:1035C00077E07B681B683D4A9446634414211800E9
:1035D000FCF79AFD03009A007B681A647B68252239
:1035E000022199547B681B681A687B681B68344900
:1035F0000A401A607B681B6819687B689A687B6858
:10360000DB681A437B681B691A437B685B691A4352
:103610007B689B691A437B68DB691A437B681B6A7A
:103620001A437B681B680A431A607B68180000F025
:1036300037FA7B689A688023DB019A4202D17B6863
:1036400000225A607B685A687B685B6CFF210A40E5
:103650001A607B689B6C7A68D26C5A607B685B6886
:10366000002B11D07B685B68042B0DD87B68180099
:1036700000F042FA7B681B6D00221A607B685B6D6C
:103680007A68926D5A6008E07B6800221A657B6850
:1036900000225A657B6800229A657B680022DA6303
:1036A0007B682522012199547B68242200219954AA
:1036B00000231800BD4602B080BDC046F8FFFDBF24
:1036C0000F80FFFF80B586B000AFF860B9607A6008
:1036D0003B601723FB1800221A70FB6824229B5CB6
:1036E000012B01D102236FE0FB68242201219954B0
:1036F000FB6825229B5CDBB2012B57D1FB6825229E
:1037000002219954FB680022DA63FB681B681A687F
:10371000FB681B6801218A431A603B687A68B968B4
:10372000F86800F07DF9FB681B6B002B08D0FB6884
:103730001B681A68FB681B680E210A431A600FE0B9
:10374000FB681B681A68FB681B6804218A431A60BF
:10375000FB681B681A68FB681B680A210A431A6029
:10376000FB685B6C1A6880235B02134008D0FB681F
:103770005B6C1A68FB685B6C802149000A431A6025
:10378000FB681B6D002B08D0FB681B6D1A68FB687B
:103790001B6D802149000A431A60FB681B681A6888
:1037A000FB681B6801210A431A600AE0FB6880225B
:1037B000DA63FB682422002199541723FB180122A5
:1037C0001A701723FB181B781800BD4606B080BD81
:1037D00080B584B000AF78600F217B1800221A708A
:1037E0007B6825229B5CDBB2022B06D07B6804221F
:1037F000DA637B1801221A7049E07B681B681A683B
:103800007B681B680E218A431A607B681B681A68F4
:103810007B681B6801218A431A607B685B6C1A68AD
:103820007B685B6C1D490A401A601D4B59687B68B8
:103830001B6C1C22134001229A40194B0A435A6008
:103840007B689B6C7A68D26C5A607B681B6D002B1E
:103850000CD07B681B6D1A687B681B6D0F490A4092
:103860001A607B685B6D7A68926D5A607B6825226E
:10387000012199547B682422002199547B689B6B19
:10388000002B04D07B689B6B7A68100098470F234D
:10389000FB181B781800BD4604B080BDFFFEFFFF7B
:1038A0000000024080B584B000AF7860554B1B68C3
:1038B000FB607B681B681B68BB607B681B6C1C2201
:1038C000134004229A401300FA68134027D0BB68C3
:1038D0000422134023D07B681B681B6820221340FE
:1038E00007D17B681B681A687B681B6804218A43C0
:1038F0001A60444B59687B681B6C1C2213400422DD
:103900009A40404B0A435A607B681B6B002B00D1E6
:1039100073E07B681B6B7A68100098476DE07B68EA
:103920001B6C1C22134002229A401300FA681340B9
:103930002ED0BB68022213402AD07B681B681B680C
:10394000202213400BD17B681B681A687B681B68B8
:103950000A218A431A607B68252201219954294B48
:1039600059687B681B6C1C22134002229A40254B2D
:103970000A435A607B682422002199547B68DB6AE1
:10398000002B3AD07B68DB6A7A681000984734E0F5
:103990007B681B6C1C22134008229A401300FA68B3
:1039A00013402BD0BB680822134027D07B681B68CC
:1039B0001A687B681B680E218A431A60114B59688C
:1039C0007B681B6C1C22134001229A400D4B0A435A
:1039D0005A607B680122DA637B68252201219954B1
:1039E0007B682422002199547B685B6B002B05D0F7
:1039F0007B685B6B7A6810009847C046C046BD463E
:103A000004B080BD0000024080B582B000AF786095
:103A10007B6825229B5CDBB21800BD4602B080BDEE
:103A200080B584B000AFF860B9607A603B60FB6835
:103A30009B6CFA68D26C5A60FB681B6D002B04D03B
:103A4000FB685B6DFA68926D5A60144B5968FB68AD
:103A50001B6C1C22134001229A40104B0A435A60EF
:103A6000FB681B683A685A60FB689B68102B08D19A
:103A7000FB681B687A689A60FB681B68BA68DA6042
:103A800007E0FB681B68BA689A60FB681B687A6885
:103A9000DA60C046BD4604B080BDC04600000240AA
:103AA00080B584B000AF78607B681B6C9B08104ABF
:103AB000944663449B001A007B685A647B681B68C9
:103AC0001A00FF231340083B14211800FCF71CFBCD
:103AD0000300FB607B68074A9A64FB681F2213405F
:103AE00001229A407B68DA64C046BD4604B080BDBE
:103AF000008200108008024080B584B000AF78607A
:103B00007B685B68FF221340FB60FB680A4A9446AF
:103B100063449B001A007B681A657B68074A5A65F4
:103B2000FB68013B0322134001229A407B689A659F
:103B3000C046BD4604B080BD3F820010400902402F
:103B400080B586B000AF7860396000237B614DE1BD
:103B50003B681B6801217A6991400A001340FB60B1
:103B6000FB68002B00D13EE13B685B6803221340F9
:103B7000012B05D03B685B6803221340022B30D138
:103B80007B689B683B617B695B0003229A40130062
:103B9000DA433B6913403B613B68DA687B695B0051
:103BA0009A4013003A6913433B617B683A699A6013
:103BB0007B685B683B6101227B699A401300DA43B2
:103BC0003B6913403B613B685B681B0901221A405B
:103BD0007B699A4013003A6913433B617B683A69F9
:103BE0005A603B685B6803221340032B17D07B6845
:103BF000DB683B617B695B0003229A401300DA4378
:103C00003B6913403B613B689A687B695B009A4063
:103C100013003A6913433B617B683A69DA603B6899
:103C20005B6803221340022B23D17B69DA087B688F
:103C300008329200D3583B617B69072213409B00F6
:103C40000F229A401300DA433B6913403B613B6803
:103C50001A697B6907210B409B009A4013003A695F
:103C600013433B617B69DA087B680832920039694B
:103C7000D1507B681B683B617B695B0003229A40E3
:103C80001300DA433B6913403B613B685B680322E6
:103C90001A407B695B009A4013003A6913433B6109
:103CA0007B683A691A603B685A68C0239B021340DC
:103CB00000D198E0534A7B699B0818339B009B58BE
:103CC0003B617B6903221340DB000F229A40130003
:103CD000DA433B6913403B617A68A023DB059A42D3
:103CE00019D07B68484A934213D07B68474A934275
:103CF0000DD07B68464A934207D07B68454A934281
:103D000001D1052308E0062306E0032304E0022393
:103D100002E0012300E000237A6903210A40D20077
:103D200093403A6913433B6136497B699B081833DA
:103D30009B003A695A50334B1B683B61FB68DA437E
:103D40003B6913403B613B685A6880235B03134027
:103D500003D03A69FB6813433B612A4B3A691A6006
:103D6000284B5B683B61FB68DA433B6913403B616E
:103D70003B685A6880239B03134003D03A69FB6871
:103D800013433B611F4B3A695A601E4A8423D35840
:103D90003B61FB68DA433B6913403B613B685A680F
:103DA00080239B02134003D03A69FB6813433B61B5
:103DB000144984223B698B50124A8023D3583B61BB
:103DC000FB68DA433B6913403B613B685A688023D8
:103DD0005B02134003D03A69FB6813433B61094916
:103DE00080223B698B507B6901337B613B681A6899
:103DF0007B69DA40131E00D0AAE6C046C046BD4625
:103E000006B080BD001802400004005000080050B9
:103E1000000C00500014005080B586B000AF7860F0
:103E2000396000237B61BAE001227B699A403B68DC
:103E300013403B613B69002B00D1ADE05D4A7B69DB
:103E40009B0818339B009B58FB607B69032213403F
:103E5000DB000F229A40FB681340FB607A68A023C6
:103E6000DB059A4219D07B68534A934213D07B6892
:103E7000524A93420DD07B68514A934207D07B68E7
:103E8000504A934201D1052308E0062306E00323AC
:103E900004E0022302E0012300E000237A69032109
:103EA0000A40D2009340FA689A4236D1414A8023B0
:103EB000D3583A69D2433F49134080228B503D4A40
:103EC0008423D3583A69D2433A49134084228B5011
:103ED000384B5A683B69D943364B0A405A60354BD8
:103EE0001A683B69D943334B0A401A607B69032245
:103EF0001340DB000F229A401300FB602D4A7B69C0
:103F00009B0818339B009A58FB68D94329487B6962
:103F10009B080A4018339B001A507B681A687B691B
:103F20005B00032199400B001A437B681A607B6990
:103F3000DA087B6808329200D3587A6907210A4070
:103F400092000F2191400A00D1437A69D2081940AA
:103F50007B6808329200D1507B689B687A69520076
:103F6000032191400A00D2431A407B689A607B6823
:103F70005B6801217A6991400A00D2431A407B684C
:103F80005A607B68DB687A695200032191400A001D
:103F9000D2431A407B68DA607B6901337B613A68FF
:103FA0007B69DA40131E00D03EE7C046C046BD46DE
:103FB00006B080BD00180240000400500008005008
:103FC000000C00500014005080B584B000AF786041
:103FD0000A00BB1C1A807B681B69BA1C128813403C
:103FE00004D00F23FB1801221A7003E00F23FB18E3
:103FF00000221A700F23FB181B781800BD4604B06E
:1040000080BD80B582B000AF786008001100BB1C95
:10401000021C1A807B1C0A1C1A707B1C1B78002B4C
:1040200004D0BB1C1A887B689A6103E0BB1C1A8809
:104030007B689A62C046BD4602B080BD80B582B042
:1040400000AF0200BB1D1A80104BDB68BA1D12883E
:10405000134008D00D4BBA1D1288DA60BB1D1B88B7
:104060001800FEF749FA094B1B69BA1D1288134064
:1040700008D0064BBA1D12881A61BB1D1B88180098
:10408000FEF714FAC046BD4602B080BD00180240DB
:1040900080B582B000AF78607B68002B01D101232E
:1040A0008FE07B6841229B5CDBB2002B07D17B68F1
:1040B0004022002199547B681800FEF7A9FF7B6815
:1040C0004122242199547B681B681A687B681B680D
:1040D00001218A431A607B685A687B681B683B49E8
:1040E0000A401A617B681B689A687B681B683849BC
:1040F0000A409A607B68DB68012B08D17B689A686C
:104100007B681B68802109020A439A6007E07B688C
:104110009A687B681B68842109020A439A607B685D
:10412000DB68022B09D17B681B685A687B681B68B7
:10413000802109010A435A6007E07B681B685A68BE
:104140007B681B6823490A405A607B681B685A6871
:104150007B681B6820490A435A607B681B68DA68E1
:104160007B681B681A490A40DA607B681A697B68B9
:104170005B691A4311007B689B691A027B681B68A4
:104180000A43DA607B68D9697B681A6A7B681B68B6
:104190000A431A607B681B681A687B681B680121E8
:1041A0000A431A607B6800225A647B6841222021FE
:1041B00099547B6800221A637B684222002199543B
:1041C00000231800BD4602B080BDC046FFFFFFF0CF
:1041D000FF7FFFFFFFF7FFFF0080000290B589B06F
:1041E00002AFF8600C00100019000A23FB18221C13
:1041F0001A800823FB18021C1A80BB1D0A1C1A8097
:10420000FB6841229B5CDBB2202B00D00CE1BB6A37
:10421000002B04D02C23FB181B88002B05D1FB6836
:10422000802292005A640123FFE0FB6840229B5CDD
:10423000012B01D10223F8E0FB68402201219954AF
:10424000FFF790F803007B6180231902F8687B690F
:1042500000931923012201F08BFE031E01D00123DC
:10426000E3E0FB68412221219954FB68422240216E
:104270009954FB6800225A64FB68BA6A5A62FB6868
:104280002C22BA1812885A85FB6800225A63BB1D7B
:104290001C880823FB181A880A23FB181988F86859
:1042A0007B6901933B6B0093230000F0CDFF031E5D
:1042B00005D0FB684022002199540123B5E0FB683A
:1042C0005B8D9BB2FF2B11D9FB68FF221A85FB681F
:1042D0001B8DDAB280235C040A23FB181988F86866
:1042E00000230093230002F01DF812E0FB685B8DB1
:1042F0009AB2FB681A85FB681B8DDAB280239C0496
:104300000A23FB181988F86800230093230002F0A1
:1043100009F87A69396BFB68180001F081FE031E09
:1043200001D0012381E0FB685B6A1A78FB681B6897
:104330009A62FB685B6A5A1CFB685A62FB685B8D79
:104340009BB2013B9AB2FB685A85FB681B8D013B0F
:104350009AB2FB681A85FB685B8D9BB2002B3AD042
:10436000FB681B8D002B36D13A6BF8687B69009394
:1043700013000022802101F0FBFD031E01D0012368
:1043800053E0FB685B8D9BB2FF2B11D9FB68FF22CA
:104390001A85FB681B8DDAB280235C040A23FB18A4
:1043A0001988F86800230093230001F0BBFF12E096
:1043B000FB685B8D9AB2FB681A85FB681B8DDAB2CD
:1043C00080239C040A23FB181988F86800230093B3
:1043D000230001F0A7FFFB685B8D9BB2002B98D1F7
:1043E0007A69396BFB68180001F060FE031E01D08A
:1043F00001231AE0FB681B682022DA61FB681B6856
:104400005A68FB681B680B490A405A60FB684122E6
:1044100020219954FB68422200219954FB684022D4
:1044200000219954002300E002231800BD4607B084
:1044300090BDC04600E800FE90B589B002AFF860BC
:104440000C00100019000A23FB18221C1A800823F4
:10445000FB18021C1A80BB1D0A1C1A80FB68412233
:104460009B5CDBB2202B00D010E1BB6A002B04D098
:104470002C23FB181B88002B05D1FB68802292009F
:104480005A64012303E1FB6840229B5C012B01D1AC
:104490000223FCE0FB68402201219954FEF762FFF1
:1044A00003007B6180231902F8687B69009319235C
:1044B000012201F05DFD031E01D00123E7E0FB684E
:1044C000412222219954FB68422240219954FB68E1
:1044D00000225A64FB68BA6A5A62FB682C22BA1836
:1044E00012885A85FB6800225A63BB1D1C8808236A
:1044F000FB181A880A23FB181988F8687B6901934E
:104500003B6B0093230000F003FF031E05D0FB6804
:104510004022002199540123B9E0FB685B8D9BB2D6
:10452000FF2B11D9FB68FF221A85FB681B8DDAB2BD
:1045300080235C040A23FB181988F868564B009303
:10454000230001F0EFFE12E0FB685B8D9AB2FB687E
:104550001A85FB681B8DDAB280239C040A23FB18A2
:104560001988F8684C4B0093230001F0DBFE3A6B8E
:10457000F8687B69009313000022042101F0F8FC25
:10458000031E01D0012382E0FB681B685A6AFB68A6
:104590005B6AD2B21A70FB685B6A5A1CFB685A628B
:1045A000FB681B8D013B9AB2FB681A85FB685B8D2B
:1045B0009BB2013B9AB2FB685A85FB685B8D9BB24C
:1045C000002B3AD0FB681B8D002B36D13A6BF86874
:1045D0007B69009313000022802101F0C9FC031EB7
:1045E00001D0012353E0FB685B8D9BB2FF2B11D9F7
:1045F000FB68FF221A85FB681B8DDAB280235C04FE
:104600000A23FB181988F86800230093230001F09F
:1046100089FE12E0FB685B8D9AB2FB681A85FB6825
:104620001B8DDAB280239C040A23FB181988F868D2
:1046300000230093230001F075FEFB685B8D9BB2A5
:10464000002B94D17A69396BFB68180001F02EFDBC
:10465000031E01D001231AE0FB681B682022DA61E7
:10466000FB681B685A68FB681B680C490A405A6063
:10467000FB68412220219954FB6842220021995471
:10468000FB68402200219954002300E00223180017
:10469000BD4607B090BDC0460024008000E800FE83
:1046A000B0B588B002AFF8600C00100019000A2302
:1046B000FB18221C1A800823FB18021C1A80BB1D41
:1046C0000A1C1A80FB6841229B5CDBB2202B00D0C5
:1046D000D6E0BB6A002B04D02C23FB181B88002BD0
:1046E00005D1FB68802292005A640123C9E0FB686F
:1046F0001B689A6980231B021A4080231B029A427E
:1047000001D10223BDE0FB6840229B5C012B01D15B
:104710000223B6E0FB68402201219954FB68412244
:1047200022219954FB68422240219954FB680022BF
:104730005A64FB68BA6A5A62FB682C22BA1812885B
:104740005A85FB68514ADA62FB68514A5A630A2368
:10475000FB181A88FB68DA64FB685B8D9BB2FF2B41
:1047600003D9FB68FF221A8504E0FB685B8D9AB2CF
:10477000FB681A85BB1D1B88012B0BD10823FB1876
:104780001B88DAB2FB681B689A62FB6801225242FE
:104790001A650EE008217B181B881B0A9BB2DAB24F
:1047A000FB681B689A627B181B88DBB21A00FB68E7
:1047B0001A65FB68DB6B002B23D0FB68DB6B354A8B
:1047C000DA62FB68DB6B344A5A63FB68DB6B0022FE
:1047D0001A63FB68DB6B00229A63FB68D86BFB688B
:1047E0001B6824331900BA6AFB681B8D17257C19D6
:1047F000FEF768FF030023707B191B78002B2BD179
:1048000013E0FB68412220219954FB6842220021D9
:104810009954FB685B6C80221A43FB685A64FB68FE
:1048200040220021995401232BE0BB1D1B88DAB2E2
:104830000A23FB181988F868184B0093002301F02D
:1048400071FDFB68402200219954FB68012118008A
:1048500001F0A2FD002314E0FB68412220219954BD
:10486000FB68422200219954FB685B6C10221A43BA
:10487000FB685A64FB68402200219954012300E040
:1048800002231800BD4606B0B0BDC0460000FFFFC1
:10489000214E0008615E0008015F000800200080D2
:1048A00080B584B000AF78607B681B689B69FB6053
:1048B0007B681B681B68BB607B685B6B002B05D04B
:1048C0007B685B6BBA68F96878689847C046BD46F4
:1048D00004B080BD80B586B000AF78607B681B688F
:1048E0009B697B617B681B681B683B617A698023DD
:1048F0005B0013400ED03B69802213400AD07B68D6
:104900005B6C01221A437B685A647B681B688022B7
:104910005200DA617A698023DB0013400ED03B69D4
:10492000802213400AD07B685B6C08221A437B68A4
:104930005A647B681B688022D200DA617A6980231E
:104940009B0013400ED03B69802213400AD07B6845
:104950005B6C02221A437B685A647B681B68802266
:104960009200DA617B685B6CFB60FB680B22134092
:1049700005D0FA687B681100180001F023F9C046E1
:10498000BD4606B080BD80B582B000AF7860C0463D
:10499000BD4602B080BD80B582B000AF7860C04631
:1049A000BD4602B080BD80B582B000AF7860C04621
:1049B000BD4602B080BD80B582B000AF7860C04611
:1049C000BD4602B080BD80B582B000AF78600800FF
:1049D0001100FB1C021C1A703B000A1C1A80C04606
:1049E000BD4602B080BD80B582B000AF7860C046E1
:1049F000BD4602B080BD80B582B000AF7860C046D1
:104A0000BD4602B080BD80B582B000AF7860C046C0
:104A1000BD4602B080BD80B582B000AF7860C046B0
:104A2000BD4602B080BD000080B586B000AFF86022
:104A3000B9607A60FB68DB6A7B61BB683B61FB68DD
:104A400040229B5C012B01D10223E7E0FB6840225E
:104A5000012199543B69202213400AD07B6820220F
:104A6000134006D03A69FB681100180000F0CAFE36
:104A7000CFE03B691022134052D07B6810221340D4
:104A80004ED0FB685B8D9BB2002B2DD1FB68412281
:104A90009B5CDBB2282B0BD17A6980239B049A4262
:104AA00006D13A69FB681100180001F033F836E0CE
:104AB000FB6841229B5CDBB2292B10D17B69594AF0
:104AC00093420CD0FB681B681022DA61FB68180067
:104AD00001F0A3F9FB68180000F062FD1FE0FB681D
:104AE0001B681022DA6191E0FB681B681022DA6112
:104AF000FB685B6C04221A43FB685A647B69002BD9
:104B000005D07A6980235B049A4200D07EE0FB687E
:104B10005A6CFB681100180001F054F876E075E05B
:104B20003B69042213402FD07B68042213402BD012
:104B3000FB685B8D9BB2002B18D0FB681B685A6A20
:104B4000FB685B6AD2B21A70FB685B6A5A1CFB682E
:104B50005A62FB681B8D013B9AB2FB681A85FB68A1
:104B60005B8D9BB2013B9AB2FB685A85FB685B8DFB
:104B70009BB2002B4CD17B692A4A934248D0FB68F8
:104B8000180000F00DFD43E03B69082213400AD0F5
:104B90007B680822134006D03A69FB6811001800B0
:104BA00000F018FC35E03B690222134031D07B68ED
:104BB000022213402DD0FB685B8D9BB2002B18D0D6
:104BC000FB685B6A1A78FB681B689A62FB685B6A21
:104BD0005A1CFB685A62FB685B8D9BB2013B9AB220
:104BE000FB685A85FB681B8D013B9AB2FB681A85EE
:104BF0000FE07A6980235B049A4202D07B69002B24
:104C000007D1FB68180000F0CBFC02E0C04600E0D2
:104C1000C046FB6840220021995400231800BD467D
:104C200006B080BD0000FFFF90B589B002AFF8600C
:104C3000B9607A60FB6840229B5C012B01D10223A2
:104C4000E7E0FB68402201219954BB681022134021
:104C500017D07B681022134013D0FB681B6810220A
:104C6000DA61FB685B6C04221A43FB685A64FB68D8
:104C70002021180001F090FBFB68180001F0CDF82E
:104C8000C2E0BB688022134000D17CE07B684022F8
:104C9000134000D177E0FB681B681A68FB681B684B
:104CA00040218A431A60FB685B8D9BB2002B55D074
:104CB000FB681B685B689AB21223FB189205920D81
:104CC0001A80FB685B8D9BB2FF2B06D9FB68FF2225
:104CD0001A8580235B047B6110E0FB685B8D9AB2D0
:104CE000FB681A85FB68DB6A4C4A934203D0FB6879
:104CF000DB6A7B6102E080239B047B61FB681B8D88
:104D0000DAB27C691223FB181988F8680023009333
:104D1000230001F007FBFB685B8D9AB2FB681B8DDB
:104D2000D31A9AB2FB685A85FB6841229B5CDBB2BE
:104D3000222B09D1FB681B681A68FB681B6880215D
:104D400009020A431A605FE0FB681B681A68FB6887
:104D50001B688021C9010A431A6055E0FB681B6883
:104D60005A6880239B041A4080239B049A4204D0F3
:104D7000FB68180000F0D2FB46E0FB6840211800F9
:104D800000F020FF40E0BB68402213402CD07B683D
:104D90004022134028D0FB685B8D9BB2002B1DD1B5
:104DA000FB681B685A6880239B041A4080239B047D
:104DB0009A4228D0FB68DB6A184A934209D1FB6803
:104DC0001B685A68FB681B688021C9010A435A6046
:104DD00019E0FB68180000F0A1FB14E0FB6840211B
:104DE000180000F0EFFE0EE0BB68202213400BD04D
:104DF0007B682022134007D0BA68FB6811001800B6
:104E000000F032FC00E0C046FB68402200219954CB
:104E100000231800BD4607B090BDC0460000FFFF4C
:104E200090B589B002AFF860B9607A60904B7B6151
:104E3000FB6840229B5C012B01D1022313E1FB683C
:104E4000402201219954BB681022134017D07B687F
:104E50001022134013D0FB681B681022DA61FB6834
:104E60005B6C04221A43FB685A64FB68202118001B
:104E700001F092FAFB68180000F0CFFFEEE0BB688B
:104E8000022213400DD07B680222134009D0FB6838
:104E90001B68FA68126D9A62FB68012252421A6519
:104EA000DCE0BB688022134063D07B684022134063
:104EB0005FD0FB680121180001F0F8FAFB681021AF
:104EC000180001F069FAFB685B8D9BB2002B4AD099
:104ED000FB685B8D9BB2FF2B10D9FB68FF221A8504
:104EE000FB68DB6C99B2FB681B8DDAB280235B0434
:104EF000F8680024009401F015FA11E0FB685B8D5E
:104F00009AB2FB681A85FB68DB6C99B2FB681B8D53
:104F1000DAB280239B04F8680024009401F002FABE
:104F2000FB685B8D9AB2FB681B8DD31A9AB2FB6843
:104F30005A85FB6841229B5CDBB2222B09D1FB68BE
:104F40001B681A68FB681B68802109020A431A6003
:104F500084E0FB681B681A68FB681B688021C90134
:104F60000A431A607AE0FB684021180000F02AFE2C
:104F700074E0BB684022134062D07B68402213403B
:104F80005ED0FB680121180001F090FAFB68102147
:104F9000180001F001FAFB6841229B5CDBB2222B76
:104FA00001D1344B7B61FB685B8D9BB2FF2B11D928
:104FB000FB68FF221A85FB68DB6C99B2FB681B8DCE
:104FC000DAB280235C04F8687B690093230001F067
:104FD000A9F912E0FB685B8D9AB2FB681A85FB6841
:104FE000DB6C99B2FB681B8DDAB280239C04F868F5
:104FF0007B690093230001F095F9FB685B8D9AB201
:10500000FB681B8DD31A9AB2FB685A85FB68412254
:105010009B5CDBB2222B09D1FB681B681A68FB681A
:105020001B68802109020A431A6017E0FB681B68AD
:105030001A68FB681B688021C9010A431A600DE0E9
:10504000BB682022134009D07B682022134005D082
:10505000BA68FB681100180000F006FBFB684022EC
:105060000021995400231800BD4607B090BDC046EA
:10507000002000800024008080B588B000AFF86078
:10508000B9607A60FB68DB6ABB610023FB61FB6887
:1050900040229B5C012B01D10223CEE0FB68402221
:1050A00001219954BB68202213400AD07B6820223A
:1050B000134006D0BA68FB681100180000F0A2FB8C
:1050C000B6E0BB681022134000D1A3E07B68102239
:1050D000134000D19EE07A688023DB01134005D1A4
:1050E0007A6880231B02134000D18CE0FB68DB6BE5
:1050F000002B0CD07A6880231B02134007D0FB687A
:10510000DB6B1B685B68002B01D10123FB61FB6833
:105110009B6B002B0CD07A688023DB01134007D0F7
:10512000FB689B6B1B685B68002B01D10123FB6153
:10513000FB69012B2DD1FB6841229B5CDBB2282B44
:105140000BD1BA6980239B049A4206D1BA68FB68E6
:105150001100180000F0DEFC54E0FB6841229B5C6B
:10516000DBB2292B10D1BB69364A93420CD0FB68C5
:105170001B681022DA61FB68180000F04EFEFB6825
:10518000180000F00DFA3DE0FB681B681022DA61A0
:105190003EE0FB681B681022DA61FB685B6C04224E
:1051A0001A43FB685A641723FB18FA684121525CC2
:1051B0001A70BB69002B04D0BA6980235B049A4241
:1051C00026D11722BB181B78212B03D0BB181B78C4
:1051D000292B03D1FB6821221A630BE01722BB188D
:1051E0001B78222B03D0BB181B782A2B02D1FB681B
:1051F00022221A63FB685A6CFB681100180000F049
:10520000E1FC05E004E0FB681B681022DA610FE0B6
:10521000C0460DE0BB680822134009D07B68082215
:10522000134005D0BA68FB681100180000F0D2F8EE
:10523000FB6840220021995400231800BD4608B0A5
:1052400080BDC0460000FFFFB0B586B002AFF86079
:105250000C00100019000A257B19221C1A80082353
:10526000FB18021C1A80BB1D0A1C1A80BB1D1B8860
:10527000DAB280235C047B191988F868234B009309
:10528000230001F04FF87A6A396AFB68180000F0D1
:10529000C7FE031E01D0012333E0BB1D1B88012B79
:1052A00007D10823FB181B88DAB2FB681B689A62D7
:1052B00019E00823FB181B881B0A9BB2DAB2FB68B3
:1052C0001B689A627A6A396AFB68180000F0A8FEC7
:1052D000031E01D0012314E00823FB181B88DAB257
:1052E000FB681B689A623A6AF8687B6A009313004D
:1052F0000022802100F03CFE031E01D0012300E0CB
:1053000000231800BD4604B0B0BDC0460020008098
:10531000B0B586B002AFF8600C00100019000A2585
:105320007B19221C1A800823FB18021C1A80BB1D43
:105330000A1C1A80BB1D1B88DAB27B191988F86811
:10534000234B0093002300F0EDFF7A6A396AFB6873
:10535000180000F065FE031E01D0012333E0BB1DE1
:105360001B88012B07D10823FB181B88DAB2FB68C6
:105370001B689A6219E00823FB181B881B0A9BB262
:10538000DAB2FB681B689A627A6A396AFB681800AD
:1053900000F046FE031E01D0012314E00823FB1891
:1053A0001B88DAB2FB681B689A623A6AF8687B6A03
:1053B000009313000022402100F0DAFD031E01D00B
:1053C000012300E000231800BD4604B0B0BDC04674
:1053D00000200080B0B584B000AF786039607B6891
:1053E00041229B5CDBB21A0028231340282B00D0FB
:1053F00088E07B681B689B691B0CDAB20F257B1960
:1054000001210A401A707B681B689B691B0C9AB2C9
:105410000C203B18FE210A401A807B681B689B68A1
:105420009AB20A243B199205920D1A807B681B6878
:10543000DB689AB20823FB18FE210A401A807B68B9
:10544000DB68022B48D121007B181B88DB099AB24C
:105450003B181B8853409BB21A000623134020D1EF
:105460003B187A1812881A807B689B6C5A1C7B68E0
:105470009A647B689B6C022B4CD17B6800229A64F7
:105480007B681B680822DA617B68402200219954FE
:105490003B181A887B1919787B681800FFF793FA74
:1054A00038E00C243B190822BA1812881A8080238D
:1054B0001A027B681100180000F0F8FF7B68402298
:1054C000002199543B191A880F23FB1819787B681F
:1054D0001800FFF778FA1DE080231A027B6811009C
:1054E000180000F0E3FF7B684022002199540C2350
:1054F000FB181A880F23FB1819787B681800FFF730
:1055000062FA07E07B681B680822DA617B68402248
:1055100000219954C046BD4604B0B0BD80B582B0EC
:1055200000AF78607B684222002199547B68412259
:105530009B5CDBB2212B17D17B684122202199543F
:105540007B6811221A637B6800225A637B68012101
:10555000180000F0ABFF7B684022002199547B6863
:105560001800FFF710FA16E07B68412220219954B9
:105570007B6812221A637B6800225A637B680221CF
:10558000180000F093FF7B684022002199547B684B
:105590001800FFF700FAC046BD4602B080BD00000B
:1055A00080B584B000AF78607B681B681B68FB60C7
:1055B0007B68422200219954FA688023DB01134062
:1055C00008D07B681B681A687B681B6824490A40FE
:1055D0001A600CE0FA6880231B02134007D07B6836
:1055E0001B681A687B681B681E490A401A607B6842
:1055F00041229B5CDBB2292B14D17B6841222821FC
:1056000099547B6821221A637B680121180000F0FD
:105610004DFF7B684022002199547B681800FFF7FA
:10562000C2F919E07B6841229B5CDBB22A2B13D1C3
:105630007B684122282199547B6822221A637B6867
:105640000221180000F032FF7B68402200219954AB
:105650007B681800FFF7AFF9C046BD4604B080BDB7
:10566000FFBFFFFFFF7FFFFF80B586B000AF786010
:1056700039603B687B617B681B682022DA617B684C
:1056800041229B5CDBB2212B08D17B6801211800F1
:1056900000F00CFF7B6811221A630DE07B68412249
:1056A0009B5CDBB2222B07D17B680221180000F043
:1056B000FDFE7B6812221A637B681B685A687B6850
:1056C0001B684E490A405A607B6800225A637B6817
:1056D0004B4ADA627B691022134009D07B681B6851
:1056E0001022DA617B685B6C04221A437B685A647F
:1056F0007B6841229B5CDBB2602B09D17B69042271
:10570000134005D07B681B685B6ADBB2FB60FB68FB
:105710007B68180000F081FB7B685B6C3B617B68F9
:1057200041229B5CDBB2602B02D03B69002B07D08F
:105730007B685A6C7B681100180000F043FA58E04F
:105740007B6841229B5CDBB2212B26D17B68412206
:10575000202199547B6800221A637B6842229B5C5B
:10576000DBB2402B0CD17B684222002199547B682C
:105770004022002199547B681800FFF73CF938E07B
:105780007B684222002199547B6840220021995471
:105790007B681800FFF7F7F82BE07B6841229B5CE1
:1057A000DBB2222B25D17B684122202199547B68D2
:1057B00000221A637B6842229B5CDBB2402B0CD137
:1057C0007B684222002199547B6840220021995431
:1057D0007B681800FCF7CEFE0BE07B6842220021BC
:1057E00099547B684022002199547B681800FFF788
:1057F000D2F8C046BD4606B080BDC04600E800FEF7
:105800000000FFFF80B586B000AF786039607B682C
:105810001B681B683B613B687B617B68DB6AFB60E4
:105820000B203B187A684121525C1A707B681B6818
:105830002022DA613B181B78212B03D03B181B7800
:10584000292B09D1AC4A7B681100180000F02EFE0C
:105850007B6821221A6320E00B22BB181B78222BC5
:1058600003D0BB181B782A2B09D1A44A7B681100EE
:10587000180000F01BFE7B6822221A630DE00B2348
:10588000FB181B78282B08D19D4A7B681100180053
:1058900000F00CFE7B6800221A637B681B685A6864
:1058A0007B681B68802109020A435A607B681B6879
:1058B0005A687B681B6893490A405A607B681800E5
:1058C00000F0ABFA3A698023DB01134013D07B6808
:1058D0001B681A687B681B688B490A401A607B68E2
:1058E0009B6B002B1FD07B689B6B1B685B689AB21D
:1058F0007B685A8517E03A6980231B02134012D057
:105900007B681B681A687B681B6880490A401A60BC
:105910007B68DB6B002B06D07B68DB6B1B685B68EE
:105920009AB27B685A857B690422134020D07B6938
:10593000042293437B617B681B685A6A7B685B6ABD
:10594000D2B21A707B685B6A5A1C7B685A627B68A9
:105950001B8D002B0CD07B681B8D013B9AB27B68A2
:105960001A857B685B8D9BB2013B9AB27B685A8536
:105970007B685B8D9BB2002B05D07B685B6C04223F
:105980001A437B685A647B69102213404FD03B69ED
:10599000102213404BD07B685B8D9BB2002B2DD126
:1059A0007B6841229B5CDBB2282B0BD1FA688023F9
:1059B0009B049A4206D17A697B681100180000F0B6
:1059C000A9F834E07B6841229B5CDBB2292B10D123
:1059D000FB684F4A93420CD07B681B681022DA6147
:1059E0007B68180000F019FA7B681800FFF7D8FDF3
:1059F0001DE07B681B681022DA6118E07B681B6879
:105A00001022DA617B685B6C04221A437B685A645B
:105A1000FB68002B04D0FA6880235B049A4206D10D
:105A20007B685A6C7B681100180000F0CBF87B682B
:105A30004222002199547B6800225A637B685B6C88
:105A4000002B13D07B685A6C7B681100180000F0A3
:105A5000B9F87B6841229B5CDBB2282B47D17A697D
:105A60007B681100180000F055F840E07B68DB6AA5
:105A7000274A934216D07B681800FFF791FD7B6898
:105A8000234ADA627B684122202199547B680022F4
:105A90001A637B684022002199547B681800FEF746
:105AA000A2FF24E07B6841229B5CDBB2222B0FD15A
:105AB0007B684122202199547B6800221A637B680D
:105AC0004022002199547B681800FEF774FF0EE015
:105AD0007B684122202199547B6800221A637B68ED
